:020000040000FA
:1000000078150020FD13000079050000750500003B
:1000100075050000750500007505000075050000F8
:100020000000000000000000000000007505000056
:100030007505000000000000750500007505000052
:10004000ED1A0000C11B00005F1C0000331D000002
:10005000E91C0000F31B000000000000000000008D
:100060000000000000000000000000000000000090
:100070000000000000000000000000000000000080
:100080000000000000000000000000000000000070
:100090000000000000000000000000000000000060
:10040000FFFFFFFFDFCEFFFFFCFFFF00FFFFFF004E
:10041000FCFFFF00FFFFFF00FCFFFF00FFFFFF00EE
:10042000FCFF0F20FFFF0F20FCFF7F40FFFF7F40FE
:10043000FCFF0D40FFFF0D40FFFFFFFFFFFFFFFF31
:10044000FFFFFFFFFFFFFFFFFFFFFFFFFFFFFFFFBC
:10045000FFFFFFFFFFFFFFFFFFFFFFFFFFFFFFFFAC
:10046000FFFFFFFFFFFFFFFFFFFFFFFFFFFFFFFF9C
:10047000FFFFFFFFFFFFFFFFFFFFFFFFFFFFFFFF8C
:10048000FFFFFFFFFFFFFFFFFFFFFFFFFFFFFFFF7C
:10049000FFFFFFFFFFFFFFFFFFFFFFFFFFFFFFFF6C
:1004A000FFFFFFFFFFFFFFFFFFFFFFFFFFFFFFFF5C
:1004B000FFFFFFFFFFFFFFFFFFFFFFFFFFFFFFFF4C
:1004C000FFFFFFFFFFFFFFFFFFFFFFFFFFFFFFFF3C
:1004D000FFFFFFFFFFFFFFFFFFFFFFFFFFFFFFFF2C
:1004E000FFFFFFFFFFFFFFFFFFFFFFFFFFFFFFFF1C
:1004F000FFFFFFFFFFFFFFFFFFFFFFFFFFFFFFFF0C
:1005000040EA01039B0703D009E008C9121F08C095
:10051000042AFAD203E011F8013B00F8013B521E15
:10052000F9D27047D2B201E000F8012B491EFBD28C
:1005300070470022F6E710B513460A4604461946EE
:10054000FFF7F0FF204610BD30B50B4601460020F6
:100550002022012409E021FA02F59D4205D303FA85
:1005600002F5491B04FA02F52844151EA2F1010206
:10057000F1DC30BD00BE7047F0B581B046F23015F9
:10058000C4F200052E8A40F20C070024C2F20007D4
:1005900026FA04F0C00704D057F8241009B1204609
:1005A00088470134102CF3D12E8001B0F0BD2DE925
:1005B000F0438BB04EF20000C4F2010040F228126A
:1005C00000F51831C2F20002116040F25811C2F277
:1005D0000001E846086040462C21FFF7AAFF1A20D8
:1005E0000390072004907B2005900620069042F29D
:1005F0001000C0F2000042F25C06D0E90051C0F2E7
:1006000000063268D6E902793469284690472846C0
:10061000B84728464146A04728464146C847F269A0
:1006200028460E2190470BB0BDE8F08310B544F288
:100630002800C4F2040000240470012000F00AF82D
:100640004EF2BB41C4F2010101200C70BDE8104024
:1006500000F027B880B50122EFF3108182F31088F3
:1006600040F25402C2F2000232F810308BB94EF25E
:10067000FE3C41F63073C4F2010CC0F20003BCF83A
:1006800000E033F8103043EA0E0343F42543ACF89E
:10069000003032F81030013322F8103081F3108826
:1006A00080BD0122EFF3108182F3108840F25402E2
:1006B000C2F2000232F8103023B132F81030013BA0
:1006C00022F8103032F810208AB94EF2FE3CC4F203
:1006D000010C41F63072BCF80030C0F2000232F872
:1006E000100043F4254222EA0000ACF8000081F338
:1006F0001088704780B540F20803C2F200031B68FF
:100700004CF6002248434FF47A7CC3F69A32A0FBA1
:100710000CE1B2FBF3F319B9BEFBF3F0800805E07E
:100720009900B0FBF1F0A0FB0C0109B910B980BD34
:100730004FF0FF30BDE8804001F025B880B50228B9
:1007400007D028B94CF29000C4F27E00012101705C
:1007500080BD40F24C0041F63871C2F20000C0F298
:10076000000100F01EF842F2F400C0F2000002683E
:1007700040F2780042F28801C2F20000C0F20001AB
:10078000904718B9BDE88040FFF711BF42F228102A
:1007900042F21811C0F20000C0F200013D2200F048
:1007A000FDFE80B545F25422C5F24F0202600846B4
:1007B00001F0DCF8002080BD6FF03F0000EA9100FE
:1007C000C9B200EB810040F60001C4F204014058B8
:1007D000C0F34001002011607047C8B2012383407C
:1007E0009BB24FF4803C002A08BF0CFA00F34FF490
:1007F000FF50082200EAD101C4F2040200208B500D
:10080000704744F2100CC4F2040C9CF80020C2F3B0
:10081000021303EB830302F00F0000EB43000860B8
:10082000D00981F82C009CF80200C0F3021202EB00
:10083000820200F00F0303EB4202C0094A6081F814
:100840002D009CF80400C0F3021202EB820200F0BB
:100850000F0303EB4202C0098A6081F82E009CF866
:100860000600C0F3021202EB820200F00F0303EB5A
:100870004202C0098A6181F832009CF80800C0F386
:10088000021202EB820200F00F0303EB4202C009E6
:10089000CA6081F82F009CF80A00C0F3021202EB34
:1008A000820200F00F0303EB4202013AC0090A6121
:1008B00081F83000BCF80C00C2B2120902EB8202CF
:1008C00000F00F0000EB4200642252FA80F0486111
:1008D0009CF80E00C209002081F83120704700000A
:1008E0002DE9F04181B040684EF2001C0069CEF263
:1008F000000C00F01F0201234FEA501E03FA02F21F
:100900000CEB8E08C8F88020BFF34F8FBFF36F8FBA
:1009100091F82C406CB10D78CD27EEB27E43F60AEB
:1009200006EB8607A5EB470545EA061545EAC4141C
:1009300000E000248DF803409DF8035044F21004B9
:10094000C4F20404257091F82D506DB10E79CD23B9
:10095000F7B27B43DB0A03EB8307A6EB470646EAC5
:10096000031343EAC51300E000238DF803309DF81C
:100970000330A37091F82E506DB10B7ACD27DEB203
:100980007E43F60A06EB8607A3EB470343EA06130A
:1009900043EAC51300E000238DF803309DF80330CF
:1009A000237191F83230002B0EBF00230B7E43F0F1
:1009B00080038DF803309DF80330A37191F82F5018
:1009C0006DB10B7BCD27DEB27E43F60A06EB8607C0
:1009D000A3EB470343EA061343EAC51300E00123F0
:1009E0008DF803309DF80330237291F8305075B1C3
:1009F0000B7CCD270133DEB27E43F60A06EB860779
:100A0000A3EB470343EA061343EAC51300E00023C0
:100A10008DF803309DF80330A37291F8315065B121
:100A2000097DCD266439CBB27343DB0A03EB830621
:100A3000A1EB460141EA031100E000218DF803100B
:100A40009DF80310A181E901A173A17C41F001018E
:100A5000A17400BFA17CC907FCD046F20031C4F2EA
:100A6000000151F8203023F4803341F8203051F850
:100A70002000BFF35F8FC8F880214CF82E200020A3
:100A800001B0BDE8F0810000F0B542684EF2001CF4
:100A9000126A44F20203CEF2000C002AC4F20403EC
:100AA0000BD455095CF8255002F01F0225FA02F21A
:100AB000D20702D04FF0000E27E093F8202042F03A
:100AC000020283F8202000BF93F820209207FBD574
:100AD000426846F20035126AC4F2000555F8224019
:100AE0004FF0010E24F4803445F8224055F822508E
:100AF00002F01F0452090EFA04F40CEB8205BFF356
:100B00005F8FC5F880414CF8224000224FF0FF343F
:100B1000642500BF02721E78370907EB870706F0CD
:100B20000F0606EB4706F6B20E609E78370907EB14
:100B3000870706F00F0606EB4706F6B24E601E79F1
:100B4000C6F3011747EA870706F00F0606EB4706CC
:100B50008E609E79370907EB870706F00F0606EBD4
:100B60004706F6B28E611E7A370907EB870706F053
:100B70000F0606EB4706F6B2CE609E7A370907EB02
:100B8000870706F00F0606EB470654FA86F60E6155
:100B90009E89F7B23F0907EB870706F00F0606EBC1
:100BA000470655FA86F64E61067A002EB2D1BEF19E
:100BB000000F19D093F8201001F0FD0183F82010E8
:100BC00093F820108907FBD440680122006A00F0E6
:100BD0001F01400902FA01F10CEB8000C0F88010FF
:100BE000BFF34F8FBFF36F8F0020F0BD10B544F2FD
:100BF0000204C4F2040494F8222002F0FE0284F8F5
:100C0000222000BF94F82220D207FBD191F800E007
:100C10004FF0CD0C5FFA8EF202FB0CF2D20A02EB1F
:100C20008203AEEB430343EA0212227091F804E020
:100C30005FFA8EF303FB0CF3DB0A03EB8302AEEBEC
:100C4000420242EA0312A27091F808E05FFA8EF3C2
:100C500003FB0CF3DA0A02EB8202AEEB420E302207
:100C600002EAD31242EA0E02227191F818E05FFA0A
:100C70008EF303FB0CF3DB0A03EB8302AEEB4202C1
:100C800042EA0312A27191F80CE05FFA8EF303FBC3
:100C90000CF3DB0A03EB8302AEEB420242EA0312DF
:100CA00022720A7C02F1010E5FFA8EF303FB0CF351
:100CB000DB0A03EB8302AEEB420242EA0312A272AA
:100CC000097D6439CAB202FB0CF2D20A02EB82033C
:100CD000A1EB430141EA0211C9B2A1814068016858
:100CE00011B9806800F0A4FE94F8220040F00100E1
:100CF00084F8220094F82200C007FBD0002010BD29
:100D00008446C0E903130020CCF81420704700008B
:100D100070B546680446306844F22405C4F2040500
:100D20002871C8200121FFF7E5FC287800F0FE00BB
:100D3000287000BF2878C007FCD1606800680128CF
:100D400003D10020E880706828810020287000BF4F
:100D500095F900000028FBD4287840F002002870A4
:100D600028788007FCD4002005F8020C287840F091
:100D70004000287028784006FCD5002005F11C01B1
:100D800011F8102002F07F0201F8102011F9102054
:100D9000002AFBD401300328F2D1002070BD0000EE
:100DA00080B544F22402C4F20402002102F8021CBD
:100DB0001378014603F0FE00107000BF1078C007E2
:100DC000FCD14B684EF2801E986940F2A80CCEF21E
:100DD000000E0028C2F2000C10D400F01F03012204
:100DE0009A4040094EF82020BFF34F8FBFF36F8F1A
:100DF0004868002280694CF820204B681869002858
:100E000011D400F01F02012303FA02F240094EF848
:100E10002020BFF34F8FBFF36F8F48680022006917
:100E20004CF820204B68186A002810D400F01F02EC
:100E3000012303FA02F240094EF82020BFF34F8F3E
:100E4000BFF36F8F48680022006A4CF82020002210
:100E500000200A6080BD80B5084600F0E9FD002052
:100E600080BD40680068086044F22400C4F20400B9
:100E7000007800F0010200204A60704710B5D1E907
:100E8000093E0246416088694EF2004CD36040F250
:100E9000A803CEF2000C00240028C2F20003146163
:100EA000C2F814E0147205D40C7D24010CF8004043
:100EB00043F820200869002805D40C7B24010CF895
:100EC000004043F82020086A002805D4097F090162
:100ED0000CF8001043F8202045F24341C0F25201C3
:100EE0000020116010BD000044F22202C4F204028E
:100EF000137803F00F0343EA011313701378B1EB77
:100F0000131FFBD1117841F00401117011784907CA
:100F1000FCD5406846F200318069C4F2000151F806
:100F2000202022F4803241F8202051F8201000F0D7
:100F30001F01012202FA01F14EF200124009CEF225
:100F4000000202EB8003BFF35F8FC3F8801142F809
:100F50002010002070478A0701D4062206E0026AAA
:100F6000937803F07B03937000220261C9071CBFD2
:100F7000002282611046704780B5026A4FF0000E71
:100F800092F802C00CF00B039370036A8A78C0F8E1
:100F90000CE05A7091F801E01A780EF0030E02F09E
:100FA000FC0272441A70CA780CF07B0C9A74DA79DD
:100FB000097802F0A30201F05C011144D971016AC1
:100FC000002081F802C080BD8446C0E909130020DA
:100FD000CCF82C207047026A002141609170C169F1
:100FE0004EF2801C4A69012102F01F0301FA03F34B
:100FF0005209CEF2000C4CF82230BFF34F8FBFF3F2
:101000006F8FC269D26A02F01F0301FA03F352091B
:101010004CF82230BFF34F8FBFF36F8FC269D26994
:1010200002F01F0301FA03F352094CF82230BFF318
:101030004F8FBFF36F8FC269526A02F01F0301FA2C
:1010400003F352094CF82230BFF34F8FBFF36F8F79
:10105000EFF3108281F31088C06947F20003007833
:10106000C4F204034FF0004C19682CFA00F0084356
:101070001860186882F31088002070474FF0FF3224
:1010800000200A604A6070472DE9F04F8B6B0246E2
:101090005362CB6B9778D36227F003035F1C087809
:1010A00047F2000E9770C4F2040E4F680EEB40102A
:1010B00000F524304FF00009106282F80090D161F1
:1010C000C2F8289017B943F002039370CC6A4EF22D
:1010D000001CCEF2000C04F01F054FF0010808FAC6
:1010E00005F70CF18005600991F8286045F820703B
:1010F00046F2003BBFF34F8FC4F2000BBFF36F8F7C
:101100005BF8240040F2A80A20F480304BF8240059
:101110005BF8240030010CF5407630554869C2F286
:10112000000A00F01F0708FA07F743094AF82420CD
:101130000C7C45F82370BFF34F8FBFF36F8F5BF8C4
:10114000203023F480334BF820305BF8203023012B
:1011500033544AF82020C8690B7E00F01F0408FAB7
:1011600004F4470945F82740BFF34F8FBFF36F8F53
:101170005BF820401B0124F480344BF820405BF8DE
:10118000204033544AF82020486A91F8203000F07B
:101190001F0408FA04F4470945F82740BFF34F8FAE
:1011A000BFF36F8F5BF820401B0124F480344BF8B1
:1011B00020405BF8204033544AF82020EFF31080A1
:1011C00088F310880B784FF00044DEF8005024FAC2
:1011D00003F325EA0303CEF80030DEF8003080F395
:1011E0001088106A40F2072380F80290106A80F895
:1011F0000490106A80F80990106A80F80A90106ACA
:1012000080F80B90106AA0F81A90087808FA00F09D
:10121000184202D0106A4023C374106A0623037771
:101220000878012803D8106A4FF478438382C8688D
:10123000D1E90173C00040EA03102FB1032F08BFAA
:1012400040F04000F22700E0E227136A0025187002
:10125000106A8771086C0227037E166A07EA430347
:101260007373176AD0E901363D720768DB0127F016
:101270000107022FDFB266F345170AD1136AFF2672
:101280005E7000680228106A08BF47F01007C77137
:1012900017E0136ADF71C068136A87785F70477858
:1012A0001E7807F0030706F0FC0637441F70C77866
:1012B0009F74DF79007807F0A30700F05C003844E2
:1012C000D8710020D369C2E90300C2E90500086CA7
:1012D0005B6901785BF8237003F01F0627F4803701
:1012E0004BF823705BF82370012707FA06F50CF51D
:1012F000C0765B09BFF35F8F46F823504CF823504C
:10130000D369DB6A5BF8235025F480354BF8235012
:101310005BF8235003F01F0507FA05F55B09BFF3DF
:101320005F8F46F823504CF82350D369DB695BF894
:10133000235025F480354BF823505BF8235003F0FD
:101340001F0507FA05F55B09BFF35F8F46F82350C9
:101350004CF82350D3695B6A5BF8235025F4803541
:101360004BF823505BF8235003F01F05AF405B0997
:10137000BFF35F8F46F823704CF823701C23176A65
:1013800063F39F01B970416944F65510C5F24330CB
:10139000506000209160BDE8F08F0346416100205D
:1013A0009A617047024680690860002100209161BF
:1013B000704780B5D0F820E09EF802C00CF07B03A7
:1013C0008EF80230837803F00303D21A0B44C36013
:1013D000036A02619A7842F080029A70827802F081
:1013E0000302022A05D10988006A41F47E41C181C5
:1013F00002E00978006AC170002080BD00F01AF890
:1014000000F0AEFAFEE74EF22000C4F2010081794E
:1014100040F26012C2F2000252F821100068C0F3DC
:10142000026021FA00F040F20801C2F200010860F7
:1014300070470000F0B581B04EF6085140F200054B
:101440004EF2FE30CEF200014FF47002C0F2000501
:10145000C4F20100C1F880200D604AF202510180FF
:10146000012180F8211000BF90F8B310C906FBD508
:101470004FF42546068000200027FFF75FF900F0B3
:1014800091F88DF803709DF8030001200124FFF707
:10149000E1F847F20401EFF3108084F31088C4F2FE
:1014A00004010A6822F000420A600A6880F310888A
:1014B00040F60000C4F20400026802F001028DF858
:1014C0000320026802F001028DF80320006800F09A
:1014D00001008DF80300EFF3108084F310880A6890
:1014E00042F000420A60096880F310880120FFF78B
:1014F000D8F80120FFF722F940F60050C4F20000AE
:101500008780068029684FF48052A1F58061816050
:101510002968C16046F22011C4F200010A8084806B
:1015200040F2080040F25811C2F20000C0F200017F
:10153000FEF7FFFF40F2000042F28C1140F2080279
:10154000C2F20000C0F20001C0F20002FEF7D8FFB4
:1015500040F2005540F20050C0F20005C0F2000019
:10156000401B8110012909DB2E46C8BF841000BF33
:1015700056F8040B28448047013CF9D1FFF743FF9C
:10158000FFF754F80220FFF7D9F800F0AFF8002079
:1015900001B0BDE8F04000F0A7B8000000BE00BFF9
:1015A000FEE700002DE9F04381B04EF2FE39C4F2AF
:1015B00001094CF200144AF20350C4F20104A9F8E4
:1015C00000000020208040F2601746F6004043F201
:1015D00000654EF22006C2F20007C0F2DC2041F2A4
:1015E00000214FF4004242F20043C0F26E15C4F2F3
:1015F0000106C0F27A01C0F2F40387E80F00C7E9E0
:101600000425B07940F2080857F820003168C2F28A
:101610000008C1F30261C840C8F80000B07C40B1C6
:10162000307F0007FCD4002089F81500092086F8D7
:10163000820099F8820038B9012089F8820040F2CE
:10164000C4400121FFF756F8012089F883000025E6
:10165000002089F8825000F05BF8B574307F0007F5
:10166000FCD5CB20F0720D2000F08DF80020B07278
:10167000307F8006FCD5786944F60001C0F2E8119D
:101680008842024602D9012272747A69B37957F806
:1016900023309A4207D20522B27140F20012C1F201
:1016A0000102326006E040F20012C1F20102326033
:1016B0000522B27101318842C8F800003CBF002009
:1016C00070740020B07786F8B0004FF42540A9F878
:1016D00000000120A08000BFA0880028FCD10120CC
:1016E000208001B0BDE8F0837047000041F69071A2
:1016F00046F200320020C0F20001C4F2000200BF36
:1017000051F8203042F8203001302028F8D17047BD
:10171000042810D14EF23600C4F2010090F8741083
:10172000C906FBD4012180F8741000BF90F8741032
:10173000C906FBD426E04EF23601C4F2010100BF17
:1017400091F87420D206FBD4002281F8742000BFE7
:1017500091F87420002AFBD191F86A20824208BFD8
:1017600070470A7822B900BF8A79D207FCD000BF3F
:1017700091F86A20D206FBD481F86A0091F86A00D9
:10178000C006FBD4704701380028FCD17047000028
:101790002DE9F04F81B00446008800285AD044F269
:1017A00040084EF2BB4AC4F204080026C4F2010A03
:1017B0000FF2A80B4FF00109002700BF60685BF82B
:1017C000272000EBC601496891423CD150F8360011
:1017D0009AF8001000F0B85009FA07F5B0F1807FD0
:1017E00005EA010014D150B90120FEF733FF9AF841
:1017F000000028438AF800000120FEF752FF18F984
:10180000170000281FD418F8170040F0800014E0DB
:1018100050B10120FEF71EFF9AF80000A8438AF895
:1018200000000120FEF73DFF18F91700B0F1FF3F5F
:1018300009DC18F8170000F07F0008F81700C8202E
:101840000121FEF757FF0137032FB7D1208801365A
:101850008642B1D301B0BDE8F08F00BF02040000A2
:1018600003040000040400004068022818BF704709
:1018700040F25C10C2F200000121017070470000CC
:1018800080B582B042F2F401C0F200018B68019091
:1018900040F27800C2F2000001A90122984740F20C
:1018A0005C10C2F2000000BF01780029FCD00021CA
:1018B0000170019802B080BD82B040F2080046F687
:1018C000004144F6D35840F24C04C2F20000C0F28A
:1018D000DC214FF0FF360127C1F262084FF47A7A1B
:1018E000C2F200040DF10409016000BFA7FB080B60
:1018F00020460D214A46FEF75FFF019870B14FEA7E
:101900009B1000FB0A6020B920460C210122FEF743
:1019100064FF4FEADB104FF4FA6111E048F21F5008
:10192000C5F2EB10A7FB00056809642100FB01600C
:1019300020B920460C210122FEF74FFFA809C8213B
:1019400000FB016020B920460C210022FEF745FF74
:1019500001204FF47A71FEF7CDFE013E0137C5E755
:1019600080B5FFF7A9FF002080BD000070B50446D8
:10197000FFF70EFF40F25C0CEFF31080012181F3C2
:101980001088C2F2000CDCF8001039B940F603519F
:10199000C4F2040100220A7040220A70DCF8001030
:1019A0000131CCF8001080F31088208828B340F66D
:1019B000000E0021C4F2040E606800EBC10250F872
:1019C00031305268D8034FEA122001D4D2B20CE071
:1019D0000EEB8015D2B255F8226026F4803645F819
:1019E000226023F4803645F822600EEB801040F828
:1019F0002230208801318142DED3EFF310810120B3
:101A000080F31088DCF8000020B1DCF80000013819
:101A1000CCF80000DCF8000038B940F60350C4F2FE
:101A20000400002202708022027081F3108870BDD1
:101A300010B544F22401C4F2040190E80C50087877
:101A4000C0F30010824212D000208872887A0028E9
:101A5000FCD1087802F0010400F0EF0040EA041025
:101A6000087000BF0878C0F300108242FAD1012A42
:101A700011D10878C0F3401083420CD0087803F0ED
:101A8000010200F0DF0040EA421008700878C0F35D
:101A900040108342FAD10EF03F0040EA8C10887269
:101AA000C0B200BF8A7A8242FCD110BDB0B584B00A
:101AB0000446806A40B1D0E900CED0E90253CDE9B6
:101AC00000CECDE9025300E06846E369D4F824C0B3
:101AD0001B78E56AC0E90032C0E90215E047A06A58
:101AE00010B19DE82E002EC004B0B0BDB0B582B0DC
:101AF000EFF303806FF35F20A0F1100440F2A80021
:101B0000C2F2000050F82450E968B9B16868006971
:101B1000221A286918BF012200281ABFD0E900C381
:101B2000CDE900C368466B695200C0E900238847CD
:101B3000286918B1DDE90012C0E9001246F2003050
:101B4000C4F2000050F8241021F4803140F8241031
:101B500050F8240002B0B0BD10B584B0006802286F
:101B60001FD142F25C00C0F20000026942F2100094
:101B7000C0F2000040F22C140068C2F200042146BA
:101B80009047D4E900CED4E90203D4E90421CDE999
:101B9000000E01F26C71013203A0CDF808C000F014
:101BA0000DF904B010BD00BF0D0A25642D25642D6C
:101BB00025642D25643A25643A25640D0A00000049
:101BC000EFF3038040F2FC7101EA800040F2A801CB
:101BD000C2F20001014451F8401C01220A7246F28F
:101BE000C021C4F20001425822F4803242504058D1
:101BF0007047B0B5EFF303806FF35F20A0F11005DD
:101C000040F2A800C2F2000050F825008178036A73
:101C100001F00301022903D1198A6FF35F2100E06B
:101C200059791A79D40602F0380203D51C7FE407EB
:101C300008BF40321C7904F0C7041C71436A0BB121
:101C4000FFF734FF46F20030C4F2000050F82510D0
:101C500021F4803140F8251050F82500B0BD10B5B2
:101C600082B0EFF3038040F2FC7101EA800046F29B
:101C7000C021C4F20001425840F2A80322F480328D
:101C8000C2F2000342504158184450F8404CA0782A
:101C900000F00302206A022A03D1018A6FF35F2158
:101CA00000E04179A069019198B1606901A9FEF74E
:101CB00027FCA0786169A26900F003000144101AB2
:101CC0006161A0610ED1606A60B1204600210122ED
:101CD00003E0606A30B12046042202B0BDE8104043
:101CE000FFF7E4BE02B010BD10B5EFF303806FF351
:101CF0005F20A0F1100440F2A800C2F2000050F8EA
:101D00002400016A8A7802F07B028A70416A19B164
:101D100000210222FFF7CAFE46F20030C4F20000A2
:101D200050F8241021F4803140F8241050F8240099
:101D300010BDEFF3038040F2FC7101EA800046F22F
:101D4000C021C4F20001425840F2A80322F48032BC
:101D5000C2F2000342504158184450F8400CC16987
:101D60004A6B0169C2B9C1B1817801F00302C1684F
:101D7000022A05D10988026A41F47E41D18102E03C
:101D80000978026AD1708178026901F00303D11ADF
:101D9000C26801611A44C26079B9016A8A7802F0A6
:101DA0007B0204328A70416A00294FF00001C16051
:101DB00003D000218022FFF779BE70470FB4054B96
:101DC00010B503A9044A029800F008F810BC5DF8A9
:101DD00014FB000081180000000000202DE9FF4FD7
:101DE00089B09B460446002506E025280BD05A46BC
:101DF0000B999047641C6D1C20780028F5D10DB01C
:101E00002846BDE8F08F0027B8460122474900E088
:101E1000074314F8013F203B02FA03F00842F7D1D0
:101E200020782E2819D114F8010F47F004072A282A
:101E30000ED06FF02F022078A0F1300109290CD8C4
:101E400008EB880102EB410100EB0108641CF2E79A
:101E50000A98641C50F8048B0A9020780028CED091
:101E6000642808D0692806D075281ED05A460B99D8
:101E700090476D1C58E00A994FF00A0901C90A9170
:101E8000002802DA40422D2102E0390504D52B2139
:101E90008DF82010012103E0F90704D02021F7E795
:101EA0008A4608AE0DE00021FAE70A994FF00A09C8
:101EB00001C90A91F7E74946FEF746FB303106F8BB
:101EC000011D0028F7D1ADEB060000F120097807CD
:101ED00001D44FF00108C84502DDA8EB090000E07D
:101EE00000208046002706E008A85A46C05D0B99EE
:101EF00090476D1C7F1C5745F6DB04E030205A46A6
:101F00000B9990476D1CB8F10001A8F10108F5DCB0
:101F100005E016F8010B5A460B9990476D1CB9F174
:101F20000001A9F10109F4DC641C65E7092801003E
:101F300001000200080010000A000000401F00001D
:101F4000040000000C000000100000000D00000064
:101F50000000010008010000000001050901000067
:101F6000000001050A010000000001090C02000048
:101F7000000001090D020000000001090E0200002E
:101F8000000001090F020000000001000003000032
:101F90002700000028000000A8000000A9000000A1
:101FA000AA000000AB0000000000000000000000DC
:101FB0000000000000000000000000000000000021
:101FC0000000000000000000000000000000000011
:101FD0000000000000000000000000000000000001
:101FE00000000000000000000000000000000000F1
:101FF00000000000000000000000000000000000E1
:1020000000000000000000000000000000000000D0
:10201000600000201C2000005C2000000000000088
:10202000FF0000004C200000FF000000DFFFFFFF6A
:102030000D000000000000000D0000000100000085
:10204000591B00000000000000000000010000001B
:102050000100000000000000000000007D0E0000F4
:10206000A10D0000110D0000ED0B0000890A000019
:10207000E108000003080000E90E0000570E000010
:10208000010D0000630E00000900000002000000C6
:1020900000000000000000000C0000000200000032
:1020A0000C000000030000000C0000000400000011
:1020B0000C0000000500000000000000000000000F
:1020C0006918000000000000CC20000000000000A3
:1020D0000100000000000000040000200F000000CC
:1020E000FFFF0000000000000000000000000000F2
:1020F000FFFF0000891000009B130000B3130000D5
:10210000790F00007D100000570F0000C90F00007C
:10211000D70F0000A51300007372632F68616C5F16
:10212000656E7472792E63004653505F5355434376
:10213000455353203D3D20657272000000000504A8
:10214000342E352E30004275696C742077697468BE
:102150002052656E6573617320416476616E6365BC
:102160006420466C657869626C6520536F6674778D
:10217000617265205061636B61676520766572737B
:10218000696F6E20342E352E3000000000000000F4
:082190004000190000000000EE
:020000040101F8
:10001800FFFFFFFFFFFFFFFFFFFFFFFFFFFFFFFFE8
:0C002800FFFFFFFFFFFFFFFFFFFFFFFFD8
:04000005000013FDE7
:00000001FF
